{
  "contractName": "Blockchain",
  "abi": [
    {
      "inputs": [],
      "stateMutability": "nonpayable",
      "type": "constructor"
    },
    {
      "anonymous": false,
      "inputs": [
        {
          "indexed": false,
          "internalType": "uint256",
          "name": "index",
          "type": "uint256"
        },
        {
          "indexed": false,
          "internalType": "bytes32",
          "name": "blockHash",
          "type": "bytes32"
        }
      ],
      "name": "BlockAdded",
      "type": "event"
    },
    {
      "anonymous": false,
      "inputs": [
        {
          "indexed": false,
          "internalType": "bool",
          "name": "isValid",
          "type": "bool"
        }
      ],
      "name": "ChainValidated",
      "type": "event"
    },
    {
      "inputs": [
        {
          "internalType": "uint256",
          "name": "",
          "type": "uint256"
        }
      ],
      "name": "chain",
      "outputs": [
        {
          "internalType": "uint256",
          "name": "index",
          "type": "uint256"
        },
        {
          "internalType": "uint256",
          "name": "timestamp",
          "type": "uint256"
        },
        {
          "internalType": "bytes32",
          "name": "previousHash",
          "type": "bytes32"
        },
        {
          "internalType": "bytes32",
          "name": "blockHash",
          "type": "bytes32"
        }
      ],
      "stateMutability": "view",
      "type": "function",
      "constant": true
    },
    {
      "inputs": [
        {
          "internalType": "uint256",
          "name": "",
          "type": "uint256"
        }
      ],
      "name": "pendingContracts",
      "outputs": [
        {
          "internalType": "contract InsuranceContract",
          "name": "",
          "type": "address"
        }
      ],
      "stateMutability": "view",
      "type": "function",
      "constant": true
    },
    {
      "inputs": [
        {
          "internalType": "address[]",
          "name": "contracts",
          "type": "address[]"
        },
        {
          "internalType": "bytes32",
          "name": "previousHash",
          "type": "bytes32"
        }
      ],
      "name": "addBlock",
      "outputs": [
        {
          "internalType": "uint256",
          "name": "",
          "type": "uint256"
        },
        {
          "internalType": "bytes32",
          "name": "",
          "type": "bytes32"
        }
      ],
      "stateMutability": "nonpayable",
      "type": "function"
    },
    {
      "inputs": [],
      "name": "validateChain",
      "outputs": [
        {
          "internalType": "bool",
          "name": "",
          "type": "bool"
        }
      ],
      "stateMutability": "nonpayable",
      "type": "function"
    },
    {
      "inputs": [
        {
          "components": [
            {
              "internalType": "uint256",
              "name": "index",
              "type": "uint256"
            },
            {
              "internalType": "uint256",
              "name": "timestamp",
              "type": "uint256"
            },
            {
              "internalType": "address[]",
              "name": "contracts",
              "type": "address[]"
            },
            {
              "internalType": "bytes32",
              "name": "previousHash",
              "type": "bytes32"
            },
            {
              "internalType": "bytes32",
              "name": "blockHash",
              "type": "bytes32"
            }
          ],
          "internalType": "struct Blockchain.Block",
          "name": "blockData",
          "type": "tuple"
        }
      ],
      "name": "calculateHash",
      "outputs": [
        {
          "internalType": "bytes32",
          "name": "",
          "type": "bytes32"
        }
      ],
      "stateMutability": "pure",
      "type": "function",
      "constant": true
    },
    {
      "inputs": [],
      "name": "getLastBlockHash",
      "outputs": [
        {
          "internalType": "bytes32",
          "name": "",
          "type": "bytes32"
        }
      ],
      "stateMutability": "view",
      "type": "function",
      "constant": true
    }
  ],
  "bytecode": "0x60806040523480156200001157600080fd5b50606062000046817f30783000000000000000000000000000000000000000000000000000000000006200004f60201b60201c565b50505062000494565b600080600080805490509050600042905060006040518060a001604052808481526020018381526020018881526020018781526020016000801b81525090506200009f816200018060201b60201c565b81608001818152505060008190806001815401808255809150506001900390600052602060002090600502016000909190919091506000820151816000015560208201518160010155604082015181600201908051906020019062000106929190620001c8565b5060608201518160030155608082015181600401555050600160006200012d919062000257565b7f050523c6e97461ceaccc44540ab96e0c97be70813576164de6985b781dbbac1983826080015160405162000164929190620003d8565b60405180910390a1828160800151945094505050509250929050565b60008160000151826020015183604001518460600151604051602001620001ab949392919062000386565b604051602081830303815290604052805190602001209050919050565b82805482825590600052602060002090810192821562000244579160200282015b82811115620002435782518260006101000a81548173ffffffffffffffffffffffffffffffffffffffff021916908373ffffffffffffffffffffffffffffffffffffffff16021790555091602001919060010190620001e9565b5b5090506200025391906200027a565b5090565b50805460008255906000526020600020908101906200027791906200027a565b50565b5b80821115620002955760008160009055506001016200027b565b5090565b6000620002a78383620002b3565b60208301905092915050565b620002be8162000438565b82525050565b6000620002d18262000415565b620002dd81856200042d565b9350620002ea8362000405565b8060005b838110156200032157815162000305888262000299565b9750620003128362000420565b925050600181019050620002ee565b5085935050505092915050565b62000339816200044c565b82525050565b620003546200034e826200044c565b62000480565b82525050565b620003658162000476565b82525050565b620003806200037a8262000476565b6200048a565b82525050565b60006200039482876200036b565b602082019150620003a682866200036b565b602082019150620003b88285620002c4565b9150620003c682846200033f565b60208201915081905095945050505050565b6000604082019050620003ef60008301856200035a565b620003fe60208301846200032e565b9392505050565b6000819050602082019050919050565b600081519050919050565b6000602082019050919050565b600081905092915050565b6000620004458262000456565b9050919050565b6000819050919050565b600073ffffffffffffffffffffffffffffffffffffffff82169050919050565b6000819050919050565b6000819050919050565b6000819050919050565b610f0780620004a46000396000f3fe608060405234801561001057600080fd5b50600436106100625760003560e01c806323a8da861461006757806327e86d6e146100975780635852cc0c146100b557806365fdd900146100e8578063875143b714610119578063fd778dd914610149575b600080fd5b610081600480360381019061007c9190610a05565b610167565b60405161008e9190610bdd565b60405180910390f35b61009f6101a6565b6040516100ac9190610bc2565b60405180910390f35b6100cf60048036038101906100ca9190610a05565b610251565b6040516100df9493929190610c41565b60405180910390f35b61010260048036038101906100fd9190610970565b610291565b604051610110929190610c18565b60405180910390f35b610133600480360381019061012e91906109c4565b6103b4565b6040516101409190610bc2565b60405180910390f35b6101516103fa565b60405161015e9190610ba7565b60405180910390f35b6001818154811061017757600080fd5b906000526020600020016000915054906101000a900473ffffffffffffffffffffffffffffffffffffffff1681565b600080600080549050116101ef576040517f08c379a00000000000000000000000000000000000000000000000000000000081526004016101e690610bf8565b60405180910390fd5b600060016000805490506102039190610d27565b8154811061023a577f4e487b7100000000000000000000000000000000000000000000000000000000600052603260045260246000fd5b906000526020600020906005020160040154905090565b6000818154811061026157600080fd5b90600052602060002090600502016000915090508060000154908060010154908060030154908060040154905084565b600080600080805490509050600042905060006040518060a001604052808481526020018381526020018881526020018781526020016000801b81525090506102d9816103b4565b81608001818152505060008190806001815401808255809150506001900390600052602060002090600502016000909190919091506000820151816000015560208201518160010155604082015181600201908051906020019061033e929190610733565b50606082015181600301556080820151816004015550506001600061036391906107bd565b7f050523c6e97461ceaccc44540ab96e0c97be70813576164de6985b781dbbac19838260800151604051610398929190610c18565b60405180910390a1828160800151945094505050509250929050565b600081600001518260200151836040015184606001516040516020016103dd9493929190610b5d565b604051602081830303815290604052805190602001209050919050565b600080600190505b6000805490508110156106f257600080828154811061044a577f4e487b7100000000000000000000000000000000000000000000000000000000600052603260045260246000fd5b90600052602060002090600502016040518060a00160405290816000820154815260200160018201548152602001600282018054806020026020016040519081016040528092919081815260200182805480156104fc57602002820191906000526020600020905b8160009054906101000a900473ffffffffffffffffffffffffffffffffffffffff1673ffffffffffffffffffffffffffffffffffffffff16815260200190600101908083116104b2575b5050505050815260200160038201548152602001600482015481525050905060008060018461052b9190610d27565b81548110610562577f4e487b7100000000000000000000000000000000000000000000000000000000600052603260045260246000fd5b90600052602060002090600502016040518060a001604052908160008201548152602001600182015481526020016002820180548060200260200160405190810160405280929190818152602001828054801561061457602002820191906000526020600020905b8160009054906101000a900473ffffffffffffffffffffffffffffffffffffffff1673ffffffffffffffffffffffffffffffffffffffff16815260200190600101908083116105ca575b5050505050815260200160038201548152602001600482015481525050905061063c826103b4565b82608001511461068a577f9085536719bded94155724ae703b9746aded67f6afbd923030672e14ecd74dcf60006040516106769190610ba7565b60405180910390a160009350505050610730565b80608001518260600151146106dd577f9085536719bded94155724ae703b9746aded67f6afbd923030672e14ecd74dcf60006040516106c99190610ba7565b60405180910390a160009350505050610730565b505080806106ea90610dd1565b915050610402565b507f9085536719bded94155724ae703b9746aded67f6afbd923030672e14ecd74dcf60016040516107239190610ba7565b60405180910390a1600190505b90565b8280548282559060005260206000209081019282156107ac579160200282015b828111156107ab5782518260006101000a81548173ffffffffffffffffffffffffffffffffffffffff021916908373ffffffffffffffffffffffffffffffffffffffff16021790555091602001919060010190610753565b5b5090506107b991906107de565b5090565b50805460008255906000526020600020908101906107db91906107de565b50565b5b808211156107f75760008160009055506001016107df565b5090565b600061080e61080984610cb7565b610c86565b9050808382526020820190508285602086028201111561082d57600080fd5b60005b8581101561085d57816108438882610867565b845260208401935060208301925050600181019050610830565b5050509392505050565b60008135905061087681610e8c565b92915050565b600082601f83011261088d57600080fd5b813561089d8482602086016107fb565b91505092915050565b6000813590506108b581610ea3565b92915050565b600060a082840312156108cd57600080fd5b6108d760a0610c86565b905060006108e78482850161095b565b60008301525060206108fb8482850161095b565b602083015250604082013567ffffffffffffffff81111561091b57600080fd5b6109278482850161087c565b604083015250606061093b848285016108a6565b606083015250608061094f848285016108a6565b60808301525092915050565b60008135905061096a81610eba565b92915050565b6000806040838503121561098357600080fd5b600083013567ffffffffffffffff81111561099d57600080fd5b6109a98582860161087c565b92505060206109ba858286016108a6565b9150509250929050565b6000602082840312156109d657600080fd5b600082013567ffffffffffffffff8111156109f057600080fd5b6109fc848285016108bb565b91505092915050565b600060208284031215610a1757600080fd5b6000610a258482850161095b565b91505092915050565b6000610a3a8383610a46565b60208301905092915050565b610a4f81610d5b565b82525050565b6000610a6082610cf3565b610a6a8185610d0b565b9350610a7583610ce3565b8060005b83811015610aa6578151610a8d8882610a2e565b9750610a9883610cfe565b925050600181019050610a79565b5085935050505092915050565b610abc81610d6d565b82525050565b610acb81610d79565b82525050565b610ae2610add82610d79565b610e1a565b82525050565b610af181610dad565b82525050565b6000610b04601683610d16565b91507f4e6f20626c6f636b7320696e2074686520636861696e000000000000000000006000830152602082019050919050565b610b4081610da3565b82525050565b610b57610b5282610da3565b610e24565b82525050565b6000610b698287610b46565b602082019150610b798286610b46565b602082019150610b898285610a55565b9150610b958284610ad1565b60208201915081905095945050505050565b6000602082019050610bbc6000830184610ab3565b92915050565b6000602082019050610bd76000830184610ac2565b92915050565b6000602082019050610bf26000830184610ae8565b92915050565b60006020820190508181036000830152610c1181610af7565b9050919050565b6000604082019050610c2d6000830185610b37565b610c3a6020830184610ac2565b9392505050565b6000608082019050610c566000830187610b37565b610c636020830186610b37565b610c706040830185610ac2565b610c7d6060830184610ac2565b95945050505050565b6000604051905081810181811067ffffffffffffffff82111715610cad57610cac610e5d565b5b8060405250919050565b600067ffffffffffffffff821115610cd257610cd1610e5d565b5b602082029050602081019050919050565b6000819050602082019050919050565b600081519050919050565b6000602082019050919050565b600081905092915050565b600082825260208201905092915050565b6000610d3282610da3565b9150610d3d83610da3565b925082821015610d5057610d4f610e2e565b5b828203905092915050565b6000610d6682610d83565b9050919050565b60008115159050919050565b6000819050919050565b600073ffffffffffffffffffffffffffffffffffffffff82169050919050565b6000819050919050565b6000610db882610dbf565b9050919050565b6000610dca82610d83565b9050919050565b6000610ddc82610da3565b91507fffffffffffffffffffffffffffffffffffffffffffffffffffffffffffffffff821415610e0f57610e0e610e2e565b5b600182019050919050565b6000819050919050565b6000819050919050565b7f4e487b7100000000000000000000000000000000000000000000000000000000600052601160045260246000fd5b7f4e487b7100000000000000000000000000000000000000000000000000000000600052604160045260246000fd5b610e9581610d5b565b8114610ea057600080fd5b50565b610eac81610d79565b8114610eb757600080fd5b50565b610ec381610da3565b8114610ece57600080fd5b5056fea264697066735822122047a9592bcde277b00ab97f208664462ec2ed48a83d1fa188339f0a87f276a6e864736f6c63430008000033",
  "immutableReferences": {},
  "source": "// SPDX-License-Identifier: MIT\r\npragma solidity ^0.8.0;\r\n\r\nimport \"./InsuranceContract.sol\";\r\n\r\ncontract Blockchain {\r\n    struct Block {\r\n        uint index;\r\n        uint timestamp;\r\n        address[] contracts; // Store addresses of contracts\r\n        bytes32 previousHash;\r\n        bytes32 blockHash;\r\n    }\r\n\r\n    Block[] public chain;\r\n    InsuranceContract[] public pendingContracts;\r\n\r\n    // Events\r\n    event BlockAdded(uint index, bytes32 blockHash);\r\n    event ChainValidated(bool isValid);\r\n\r\n    constructor() {\r\n        // Initialize the blockchain with a genesis block\r\n        address[] memory emptyContracts;\r\n        addBlock(emptyContracts, \"0x0\"); // Genesis block\r\n    }\r\n\r\n    function addBlock(address[] memory contracts, bytes32 previousHash) public returns (uint, bytes32) {\r\n        uint index = chain.length;\r\n        uint timestamp = block.timestamp;\r\n\r\n        Block memory newBlock = Block(index, timestamp, contracts, previousHash, 0);\r\n        newBlock.blockHash = calculateHash(newBlock);\r\n\r\n        chain.push(newBlock);\r\n\r\n        delete pendingContracts;\r\n\r\n        emit BlockAdded(index, newBlock.blockHash);  // Emit event\r\n        return (index, newBlock.blockHash);\r\n    }\r\n\r\n    function validateChain() public returns (bool) {\r\n        for (uint i = 1; i < chain.length; i++) {\r\n            Block memory currentBlock = chain[i];\r\n            Block memory previousBlock = chain[i - 1];\r\n\r\n            if (currentBlock.blockHash != calculateHash(currentBlock)) {\r\n                emit ChainValidated(false);  // Emit event if validation fails\r\n                return false;\r\n            }\r\n\r\n            if (currentBlock.previousHash != previousBlock.blockHash) {\r\n                emit ChainValidated(false);  // Emit event if validation fails\r\n                return false;\r\n            }\r\n        }\r\n\r\n        emit ChainValidated(true);  // Emit event if chain is valid\r\n        return true;\r\n    }\r\n\r\n    function calculateHash(Block memory blockData) public pure returns (bytes32) {\r\n        return keccak256(abi.encodePacked(blockData.index, blockData.timestamp, blockData.contracts, blockData.previousHash));\r\n    }\r\n\r\n    // New function to retrieve the hash of the last block\r\n    function getLastBlockHash() public view returns (bytes32) {\r\n        require(chain.length > 0, \"No blocks in the chain\");\r\n        return chain[chain.length - 1].blockHash;\r\n    }\r\n}\r\n",
  "sourcePath": "D:\\sem-7\\Blockchain\\Mini_Project\\insurance_app\\contracts\\Blockchain.sol",
  "compiler": {
    "name": "solc",
    "version": "0.8.0+commit.c7dfd78e.Emscripten.clang"
  },
  "schemaVersion": "3.4.16",
  "updatedAt": "2024-10-12T17:06:54.853Z",
  "networkType": "ethereum",
  "devdoc": {
    "kind": "dev",
    "methods": {},
    "version": 1
  },
  "userdoc": {
    "kind": "user",
    "methods": {},
    "version": 1
  }
}