{
  "contractName": "Condition",
  "abi": [
    {
      "inputs": [
        {
          "internalType": "uint256",
          "name": "_claimID",
          "type": "uint256"
        },
        {
          "internalType": "string",
          "name": "_policyNumber",
          "type": "string"
        }
      ],
      "stateMutability": "nonpayable",
      "type": "constructor"
    },
    {
      "anonymous": false,
      "inputs": [
        {
          "indexed": false,
          "internalType": "uint256",
          "name": "claimID",
          "type": "uint256"
        }
      ],
      "name": "ClaimSubmitted",
      "type": "event"
    },
    {
      "inputs": [],
      "name": "claimID",
      "outputs": [
        {
          "internalType": "uint256",
          "name": "",
          "type": "uint256"
        }
      ],
      "stateMutability": "view",
      "type": "function",
      "constant": true
    },
    {
      "inputs": [],
      "name": "policyNumber",
      "outputs": [
        {
          "internalType": "string",
          "name": "",
          "type": "string"
        }
      ],
      "stateMutability": "view",
      "type": "function",
      "constant": true
    },
    {
      "inputs": [],
      "name": "status",
      "outputs": [
        {
          "internalType": "bool",
          "name": "",
          "type": "bool"
        }
      ],
      "stateMutability": "view",
      "type": "function",
      "constant": true
    },
    {
      "inputs": [],
      "name": "submitClaim",
      "outputs": [],
      "stateMutability": "nonpayable",
      "type": "function"
    },
    {
      "inputs": [
        {
          "internalType": "bool",
          "name": "newStatus",
          "type": "bool"
        }
      ],
      "name": "updateStatus",
      "outputs": [],
      "stateMutability": "nonpayable",
      "type": "function"
    },
    {
      "inputs": [],
      "name": "getClaimId",
      "outputs": [
        {
          "internalType": "uint256",
          "name": "",
          "type": "uint256"
        }
      ],
      "stateMutability": "view",
      "type": "function",
      "constant": true
    },
    {
      "inputs": [],
      "name": "getPolicyNumber",
      "outputs": [
        {
          "internalType": "string",
          "name": "",
          "type": "string"
        }
      ],
      "stateMutability": "view",
      "type": "function",
      "constant": true
    },
    {
      "inputs": [],
      "name": "getStatus",
      "outputs": [
        {
          "internalType": "bool",
          "name": "",
          "type": "bool"
        }
      ],
      "stateMutability": "view",
      "type": "function",
      "constant": true
    }
  ],
  "bytecode": "0x60806040523480156200001157600080fd5b50604051620008b6380380620008b68339818101604052810190620000379190620001b3565b816000819055508060019080519060200190620000569291906200007a565b506000600260006101000a81548160ff021916908315150217905550505062000362565b8280546200008890620002b4565b90600052602060002090601f016020900481019282620000ac5760008555620000f8565b82601f10620000c757805160ff1916838001178555620000f8565b82800160010185558215620000f8579182015b82811115620000f7578251825591602001919060010190620000da565b5b5090506200010791906200010b565b5090565b5b80821115620001265760008160009055506001016200010c565b5090565b6000620001416200013b8462000241565b6200020d565b9050828152602081018484840111156200015a57600080fd5b620001678482856200027e565b509392505050565b600082601f8301126200018157600080fd5b8151620001938482602086016200012a565b91505092915050565b600081519050620001ad8162000348565b92915050565b60008060408385031215620001c757600080fd5b6000620001d7858286016200019c565b925050602083015167ffffffffffffffff811115620001f557600080fd5b62000203858286016200016f565b9150509250929050565b6000604051905081810181811067ffffffffffffffff8211171562000237576200023662000319565b5b8060405250919050565b600067ffffffffffffffff8211156200025f576200025e62000319565b5b601f19601f8301169050602081019050919050565b6000819050919050565b60005b838110156200029e57808201518184015260208101905062000281565b83811115620002ae576000848401525b50505050565b60006002820490506001821680620002cd57607f821691505b60208210811415620002e457620002e3620002ea565b5b50919050565b7f4e487b7100000000000000000000000000000000000000000000000000000000600052602260045260246000fd5b7f4e487b7100000000000000000000000000000000000000000000000000000000600052604160045260246000fd5b620003538162000274565b81146200035f57600080fd5b50565b61054480620003726000396000f3fe608060405234801561001057600080fd5b50600436106100885760003560e01c80635df6f2ee1161005b5780635df6f2ee146100ef578063909ee5d71461010d57806399066b841461012b578063e3f445391461014957610088565b806319e072ef1461008d5780631afbd128146100a9578063200d2ed2146100b35780634e69d560146100d1575b600080fd5b6100a760048036038101906100a29190610348565b610167565b005b6100b1610184565b005b6100bb6101da565b6040516100c891906103c8565b60405180910390f35b6100d96101ed565b6040516100e691906103c8565b60405180910390f35b6100f7610204565b6040516101049190610405565b60405180910390f35b61011561020a565b6040516101229190610405565b60405180910390f35b610133610213565b60405161014091906103e3565b60405180910390f35b6101516102a1565b60405161015e91906103e3565b60405180910390f35b80600260006101000a81548160ff02191690831515021790555050565b6001600260006101000a81548160ff0219169083151502179055507f9936a1a62c48173d9bbe9f13a0665f489585f9b2bb59a6747ce90c5d48272d356000546040516101d09190610405565b60405180910390a1565b600260009054906101000a900460ff1681565b6000600260009054906101000a900460ff16905090565b60005481565b60008054905090565b6001805461022090610485565b80601f016020809104026020016040519081016040528092919081815260200182805461024c90610485565b80156102995780601f1061026e57610100808354040283529160200191610299565b820191906000526020600020905b81548152906001019060200180831161027c57829003601f168201915b505050505081565b6060600180546102b090610485565b80601f01602080910402602001604051908101604052809291908181526020018280546102dc90610485565b80156103295780601f106102fe57610100808354040283529160200191610329565b820191906000526020600020905b81548152906001019060200180831161030c57829003601f168201915b5050505050905090565b600081359050610342816104f7565b92915050565b60006020828403121561035a57600080fd5b600061036884828501610333565b91505092915050565b61037a8161043c565b82525050565b600061038b82610420565b610395818561042b565b93506103a5818560208601610452565b6103ae816104e6565b840191505092915050565b6103c281610448565b82525050565b60006020820190506103dd6000830184610371565b92915050565b600060208201905081810360008301526103fd8184610380565b905092915050565b600060208201905061041a60008301846103b9565b92915050565b600081519050919050565b600082825260208201905092915050565b60008115159050919050565b6000819050919050565b60005b83811015610470578082015181840152602081019050610455565b8381111561047f576000848401525b50505050565b6000600282049050600182168061049d57607f821691505b602082108114156104b1576104b06104b7565b5b50919050565b7f4e487b7100000000000000000000000000000000000000000000000000000000600052602260045260246000fd5b6000601f19601f8301169050919050565b6105008161043c565b811461050b57600080fd5b5056fea2646970667358221220bccd5fa5fa065d81c0314993128737985be766daa26629ca1d565bad675c3e3464736f6c63430008000033",
  "immutableReferences": {},
  "source": "// SPDX-License-Identifier: MIT\r\npragma solidity ^0.8.0;\r\n\r\ncontract Condition {\r\n    uint public claimID;\r\n    string public policyNumber;\r\n    bool public status;  // Renamed for clarity\r\n\r\n    // Event for claim submission\r\n    event ClaimSubmitted(uint claimID);\r\n\r\n    constructor(uint _claimID, string memory _policyNumber) {\r\n        claimID = _claimID;\r\n        policyNumber = _policyNumber;\r\n        status = false;\r\n    }\r\n\r\n    function submitClaim() public {\r\n        status = true;\r\n        emit ClaimSubmitted(claimID);  // Emit event on claim submission\r\n    }\r\n\r\n    function updateStatus(bool newStatus) public {\r\n        status = newStatus;\r\n    }\r\n\r\n    function getClaimId() public view returns (uint) {\r\n        return claimID;\r\n    }\r\n\r\n    function getPolicyNumber() public view returns (string memory) {\r\n        return policyNumber;\r\n    }\r\n\r\n    function getStatus() public view returns (bool) {\r\n        return status;\r\n    }\r\n}\r\n",
  "sourcePath": "D:\\sem-7\\Blockchain\\Mini_Project\\insurance_app\\contracts\\Condition.sol",
  "compiler": {
    "name": "solc",
    "version": "0.8.0+commit.c7dfd78e.Emscripten.clang"
  },
  "schemaVersion": "3.4.16",
  "updatedAt": "2024-10-12T17:06:54.883Z",
  "networkType": "ethereum",
  "devdoc": {
    "kind": "dev",
    "methods": {},
    "version": 1
  },
  "userdoc": {
    "kind": "user",
    "methods": {},
    "version": 1
  }
}