{
  "contractName": "InsuranceContract",
  "abi": [
    {
      "inputs": [
        {
          "internalType": "string",
          "name": "_contractID",
          "type": "string"
        },
        {
          "internalType": "address",
          "name": "policyHolderAddress",
          "type": "address"
        },
        {
          "internalType": "address",
          "name": "insurerAddress",
          "type": "address"
        }
      ],
      "stateMutability": "nonpayable",
      "type": "constructor"
    },
    {
      "anonymous": false,
      "inputs": [
        {
          "indexed": false,
          "internalType": "string",
          "name": "contractID",
          "type": "string"
        }
      ],
      "name": "ContractSigned",
      "type": "event"
    },
    {
      "anonymous": false,
      "inputs": [
        {
          "indexed": false,
          "internalType": "contract Term",
          "name": "term",
          "type": "address"
        }
      ],
      "name": "TermAdded",
      "type": "event"
    },
    {
      "inputs": [],
      "name": "contractID",
      "outputs": [
        {
          "internalType": "string",
          "name": "",
          "type": "string"
        }
      ],
      "stateMutability": "view",
      "type": "function",
      "constant": true
    },
    {
      "inputs": [],
      "name": "insurer",
      "outputs": [
        {
          "internalType": "contract Insurer",
          "name": "",
          "type": "address"
        }
      ],
      "stateMutability": "view",
      "type": "function",
      "constant": true
    },
    {
      "inputs": [],
      "name": "isActive",
      "outputs": [
        {
          "internalType": "bool",
          "name": "",
          "type": "bool"
        }
      ],
      "stateMutability": "view",
      "type": "function",
      "constant": true
    },
    {
      "inputs": [],
      "name": "policyHolder",
      "outputs": [
        {
          "internalType": "contract PolicyHolder",
          "name": "",
          "type": "address"
        }
      ],
      "stateMutability": "view",
      "type": "function",
      "constant": true
    },
    {
      "inputs": [
        {
          "internalType": "uint256",
          "name": "",
          "type": "uint256"
        }
      ],
      "name": "terms",
      "outputs": [
        {
          "internalType": "contract Term",
          "name": "",
          "type": "address"
        }
      ],
      "stateMutability": "view",
      "type": "function",
      "constant": true
    },
    {
      "inputs": [],
      "name": "signContract",
      "outputs": [],
      "stateMutability": "nonpayable",
      "type": "function"
    },
    {
      "inputs": [
        {
          "internalType": "contract Term",
          "name": "term",
          "type": "address"
        }
      ],
      "name": "addTerm",
      "outputs": [],
      "stateMutability": "nonpayable",
      "type": "function"
    },
    {
      "inputs": [],
      "name": "getContractId",
      "outputs": [
        {
          "internalType": "string",
          "name": "",
          "type": "string"
        }
      ],
      "stateMutability": "view",
      "type": "function",
      "constant": true
    },
    {
      "inputs": [],
      "name": "getInsurer",
      "outputs": [
        {
          "internalType": "address",
          "name": "",
          "type": "address"
        }
      ],
      "stateMutability": "view",
      "type": "function",
      "constant": true
    },
    {
      "inputs": [],
      "name": "checkIsActive",
      "outputs": [
        {
          "internalType": "bool",
          "name": "",
          "type": "bool"
        }
      ],
      "stateMutability": "view",
      "type": "function",
      "constant": true
    },
    {
      "inputs": [],
      "name": "isValid",
      "outputs": [
        {
          "internalType": "bool",
          "name": "",
          "type": "bool"
        }
      ],
      "stateMutability": "view",
      "type": "function",
      "constant": true
    },
    {
      "inputs": [],
      "name": "getPolicyHolder",
      "outputs": [
        {
          "internalType": "address",
          "name": "",
          "type": "address"
        }
      ],
      "stateMutability": "view",
      "type": "function",
      "constant": true
    },
    {
      "inputs": [],
      "name": "getTerms",
      "outputs": [
        {
          "internalType": "contract Term[]",
          "name": "",
          "type": "address[]"
        }
      ],
      "stateMutability": "view",
      "type": "function",
      "constant": true
    }
  ],
  "bytecode": "0x60806040523480156200001157600080fd5b506040516200120f3803806200120f83398181016040528101906200003791906200022f565b82600090805190602001906200004f929190620000f6565b5081600160006101000a81548173ffffffffffffffffffffffffffffffffffffffff021916908373ffffffffffffffffffffffffffffffffffffffff16021790555080600260006101000a81548173ffffffffffffffffffffffffffffffffffffffff021916908373ffffffffffffffffffffffffffffffffffffffff1602179055506000600460006101000a81548160ff0219169083151502179055505050506200041d565b82805462000104906200036f565b90600052602060002090601f01602090048101928262000128576000855562000174565b82601f106200014357805160ff191683800117855562000174565b8280016001018555821562000174579182015b828111156200017357825182559160200191906001019062000156565b5b50905062000183919062000187565b5090565b5b80821115620001a257600081600090555060010162000188565b5090565b6000620001bd620001b784620002d2565b6200029e565b905082815260208101848484011115620001d657600080fd5b620001e384828562000339565b509392505050565b600081519050620001fc8162000403565b92915050565b600082601f8301126200021457600080fd5b815162000226848260208601620001a6565b91505092915050565b6000806000606084860312156200024557600080fd5b600084015167ffffffffffffffff8111156200026057600080fd5b6200026e8682870162000202565b93505060206200028186828701620001eb565b92505060406200029486828701620001eb565b9150509250925092565b6000604051905081810181811067ffffffffffffffff82111715620002c857620002c7620003d4565b5b8060405250919050565b600067ffffffffffffffff821115620002f057620002ef620003d4565b5b601f19601f8301169050602081019050919050565b6000620003128262000319565b9050919050565b600073ffffffffffffffffffffffffffffffffffffffff82169050919050565b60005b83811015620003595780820151818401526020810190506200033c565b8381111562000369576000848401525b50505050565b600060028204905060018216806200038857607f821691505b602082108114156200039f576200039e620003a5565b5b50919050565b7f4e487b7100000000000000000000000000000000000000000000000000000000600052602260045260246000fd5b7f4e487b7100000000000000000000000000000000000000000000000000000000600052604160045260246000fd5b6200040e8162000305565b81146200041a57600080fd5b50565b610de2806200042d6000396000f3fe608060405234801561001057600080fd5b50600436106100cf5760003560e01c806381f8ac8e1161008c578063b8b4f1a011610066578063b8b4f1a0146101e0578063bb5d40eb146101ea578063c0aa0e8a14610208578063dbc837c514610238576100cf565b806381f8ac8e1461018657806391f30bd4146101a4578063a3f82eb8146101c2576100cf565b806314590983146100d457806322f3e2d4146100f25780634173b417146101105780634788cabf1461012e57806347d57cf11461014c5780635d0c147614610168575b600080fd5b6100dc610256565b6040516100e99190610a4a565b60405180910390f35b6100fa61026d565b6040516101079190610a4a565b60405180910390f35b610118610280565b6040516101259190610a28565b60405180910390f35b61013661030e565b6040516101439190610ab6565b60405180910390f35b610166600480360381019061016191906107f2565b6103a0565b005b61017061043d565b60405161017d9190610a0d565b60405180910390f35b61018e610467565b60405161019b9190610a80565b60405180910390f35b6101ac61048d565b6040516101b99190610ab6565b60405180910390f35b6101ca61051b565b6040516101d79190610a0d565b60405180910390f35b6101e8610545565b005b6101f26105ea565b6040516101ff9190610a4a565b60405180910390f35b610222600480360381019061021d919061081b565b610725565b60405161022f9190610a9b565b60405180910390f35b610240610764565b60405161024d9190610a65565b60405180910390f35b6000600460009054906101000a900460ff16905090565b600460009054906101000a900460ff1681565b6060600380548060200260200160405190810160405280929190818152602001828054801561030457602002820191906000526020600020905b8160009054906101000a900473ffffffffffffffffffffffffffffffffffffffff1673ffffffffffffffffffffffffffffffffffffffff16815260200190600101908083116102ba575b5050505050905090565b60606000805461031d90610c7d565b80601f016020809104026020016040519081016040528092919081815260200182805461034990610c7d565b80156103965780601f1061036b57610100808354040283529160200191610396565b820191906000526020600020905b81548152906001019060200180831161037957829003601f168201915b5050505050905090565b6003819080600181540180825580915050600190039060005260206000200160009091909190916101000a81548173ffffffffffffffffffffffffffffffffffffffff021916908373ffffffffffffffffffffffffffffffffffffffff1602179055507f524766c6282bdc623dcecc597e776a0c6c4a61f48befca2e46959101560686ac816040516104329190610a9b565b60405180910390a150565b6000600260009054906101000a900473ffffffffffffffffffffffffffffffffffffffff16905090565b600160009054906101000a900473ffffffffffffffffffffffffffffffffffffffff1681565b6000805461049a90610c7d565b80601f01602080910402602001604051908101604052809291908181526020018280546104c690610c7d565b80156105135780601f106104e857610100808354040283529160200191610513565b820191906000526020600020905b8154815290600101906020018083116104f657829003601f168201915b505050505081565b6000600160009054906101000a900473ffffffffffffffffffffffffffffffffffffffff16905090565b600460009054906101000a900460ff1615610595576040517f08c379a000000000000000000000000000000000000000000000000000000000815260040161058c90610afa565b60405180910390fd5b6001600460006101000a81548160ff0219169083151502179055507fb7d22cc7de8b9e30a802b918c96be14e80ed39adf69e5090b3dd3a3cb93dd88860006040516105e09190610ad8565b60405180910390a1565b6000600460009054906101000a900460ff166106095760009050610722565b60005b60038054905081101561071c5760038181548110610653577f4e487b7100000000000000000000000000000000000000000000000000000000600052603260045260246000fd5b9060005260206000200160009054906101000a900473ffffffffffffffffffffffffffffffffffffffff1673ffffffffffffffffffffffffffffffffffffffff16637daa9efc6040518163ffffffff1660e01b815260040160206040518083038186803b1580156106c357600080fd5b505afa1580156106d7573d6000803e3d6000fd5b505050506040513d601f19601f820116820180604052508101906106fb91906107c9565b610709576000915050610722565b808061071490610caf565b91505061060c565b50600190505b90565b6003818154811061073557600080fd5b906000526020600020016000915054906101000a900473ffffffffffffffffffffffffffffffffffffffff1681565b600260009054906101000a900473ffffffffffffffffffffffffffffffffffffffff1681565b60008151905061079981610d67565b92915050565b6000813590506107ae81610d7e565b92915050565b6000813590506107c381610d95565b92915050565b6000602082840312156107db57600080fd5b60006107e98482850161078a565b91505092915050565b60006020828403121561080457600080fd5b60006108128482850161079f565b91505092915050565b60006020828403121561082d57600080fd5b600061083b848285016107b4565b91505092915050565b600061085083836108f6565b60208301905092915050565b61086581610b84565b82525050565b600061087682610b3f565b6108808185610b62565b935061088b83610b1a565b8060005b838110156108bc5781516108a38882610844565b97506108ae83610b55565b92505060018101905061088f565b5085935050505092915050565b6108d281610b96565b82525050565b6108e181610bde565b82525050565b6108f081610c02565b82525050565b6108ff81610c26565b82525050565b61090e81610c26565b82525050565b600061091f82610b4a565b6109298185610b73565b9350610939818560208601610c4a565b61094281610d56565b840191505092915050565b6000815461095a81610c7d565b6109648186610b73565b9450600182166000811461097f5760018114610991576109c4565b60ff19831686526020860193506109c4565b61099a85610b2a565b60005b838110156109bc5781548189015260018201915060208101905061099d565b808801955050505b50505092915050565b60006109da601b83610b73565b91507f436f6e747261637420697320616c7265616479206163746976652e00000000006000830152602082019050919050565b6000602082019050610a22600083018461085c565b92915050565b60006020820190508181036000830152610a42818461086b565b905092915050565b6000602082019050610a5f60008301846108c9565b92915050565b6000602082019050610a7a60008301846108d8565b92915050565b6000602082019050610a9560008301846108e7565b92915050565b6000602082019050610ab06000830184610905565b92915050565b60006020820190508181036000830152610ad08184610914565b905092915050565b60006020820190508181036000830152610af2818461094d565b905092915050565b60006020820190508181036000830152610b13816109cd565b9050919050565b6000819050602082019050919050565b60008190508160005260206000209050919050565b600081519050919050565b600081519050919050565b6000602082019050919050565b600082825260208201905092915050565b600082825260208201905092915050565b6000610b8f82610bb4565b9050919050565b60008115159050919050565b6000610bad82610b84565b9050919050565b600073ffffffffffffffffffffffffffffffffffffffff82169050919050565b6000819050919050565b6000610be982610bf0565b9050919050565b6000610bfb82610bb4565b9050919050565b6000610c0d82610c14565b9050919050565b6000610c1f82610bb4565b9050919050565b6000610c3182610c38565b9050919050565b6000610c4382610bb4565b9050919050565b60005b83811015610c68578082015181840152602081019050610c4d565b83811115610c77576000848401525b50505050565b60006002820490506001821680610c9557607f821691505b60208210811415610ca957610ca8610d27565b5b50919050565b6000610cba82610bd4565b91507fffffffffffffffffffffffffffffffffffffffffffffffffffffffffffffffff821415610ced57610cec610cf8565b5b600182019050919050565b7f4e487b7100000000000000000000000000000000000000000000000000000000600052601160045260246000fd5b7f4e487b7100000000000000000000000000000000000000000000000000000000600052602260045260246000fd5b6000601f19601f8301169050919050565b610d7081610b96565b8114610d7b57600080fd5b50565b610d8781610ba2565b8114610d9257600080fd5b50565b610d9e81610bd4565b8114610da957600080fd5b5056fea2646970667358221220237e045101170dca0b66b75cc4e5df15f4a245f7368a40f475e570a627df5e5564736f6c63430008000033",
  "immutableReferences": {},
  "source": "// SPDX-License-Identifier: MIT\r\npragma solidity ^0.8.0;\r\n\r\nimport \"./PolicyHolder.sol\";\r\nimport \"./Insurer.sol\";\r\nimport \"./Term.sol\";\r\n\r\ncontract InsuranceContract {\r\n    string public contractID;\r\n    PolicyHolder public policyHolder;\r\n    Insurer public insurer;\r\n    Term[] public terms;\r\n    bool public isActive;\r\n\r\n    // Events\r\n    event ContractSigned(string contractID);\r\n    event TermAdded(Term term);\r\n\r\n    constructor(string memory _contractID, address policyHolderAddress, address insurerAddress) {\r\n        contractID = _contractID;\r\n        policyHolder = PolicyHolder(policyHolderAddress);\r\n        insurer = Insurer(insurerAddress);\r\n        isActive = false; // Contract is inactive until signed\r\n    }\r\n\r\n    // Activate the insurance contract\r\n    function signContract() public {\r\n        require(!isActive, \"Contract is already active.\");\r\n        isActive = true;\r\n        emit ContractSigned(contractID);  // Emit event on signing\r\n    }\r\n\r\n    // Add a new term to the insurance contract\r\n    function addTerm(Term term) public {\r\n        terms.push(term);\r\n        emit TermAdded(term);  // Emit event when a term is added\r\n    }\r\n\r\n    function getContractId() public view returns (string memory) {\r\n        return contractID;\r\n    }\r\n\r\n    function getInsurer() public view returns (address) {\r\n        return address(insurer);\r\n    }\r\n\r\n    function checkIsActive() public view returns (bool) {\r\n        return isActive;\r\n    }\r\n\r\n    function isValid() public view returns (bool) {\r\n        if (!isActive) return false;\r\n        for (uint i = 0; i < terms.length; i++) {\r\n            if (!terms[i].evaluate()) {\r\n                return false;\r\n            }\r\n        }\r\n        return true;\r\n    }\r\n\r\n    function getPolicyHolder() public view returns (address) {\r\n        return address(policyHolder);\r\n    }\r\n\r\n    function getTerms() public view returns (Term[] memory) {\r\n        return terms;\r\n    }\r\n}\r\n",
  "sourcePath": "D:\\sem-7\\Blockchain\\Mini_Project\\insurance_app\\contracts\\InsuranceContract.sol",
  "compiler": {
    "name": "solc",
    "version": "0.8.0+commit.c7dfd78e.Emscripten.clang"
  },
  "schemaVersion": "3.4.16",
  "updatedAt": "2024-10-12T17:06:54.860Z",
  "networkType": "ethereum",
  "devdoc": {
    "kind": "dev",
    "methods": {},
    "version": 1
  },
  "userdoc": {
    "kind": "user",
    "methods": {},
    "version": 1
  }
}