{
  "contractName": "PolicyHolder",
  "abi": [
    {
      "inputs": [
        {
          "internalType": "string",
          "name": "_holderId",
          "type": "string"
        }
      ],
      "stateMutability": "nonpayable",
      "type": "constructor"
    },
    {
      "anonymous": false,
      "inputs": [
        {
          "indexed": false,
          "internalType": "contract InsuranceContract",
          "name": "insuranceContract",
          "type": "address"
        }
      ],
      "name": "PolicyApplied",
      "type": "event"
    },
    {
      "inputs": [],
      "name": "holderId",
      "outputs": [
        {
          "internalType": "string",
          "name": "",
          "type": "string"
        }
      ],
      "stateMutability": "view",
      "type": "function",
      "constant": true
    },
    {
      "inputs": [
        {
          "internalType": "uint256",
          "name": "",
          "type": "uint256"
        }
      ],
      "name": "policies",
      "outputs": [
        {
          "internalType": "contract InsuranceContract",
          "name": "",
          "type": "address"
        }
      ],
      "stateMutability": "view",
      "type": "function",
      "constant": true
    },
    {
      "inputs": [
        {
          "internalType": "contract InsuranceContract",
          "name": "insuranceContract",
          "type": "address"
        }
      ],
      "name": "applyForInsurance",
      "outputs": [],
      "stateMutability": "nonpayable",
      "type": "function"
    },
    {
      "inputs": [],
      "name": "getHolderId",
      "outputs": [
        {
          "internalType": "string",
          "name": "",
          "type": "string"
        }
      ],
      "stateMutability": "view",
      "type": "function",
      "constant": true
    },
    {
      "inputs": [],
      "name": "getPolicies",
      "outputs": [
        {
          "internalType": "contract InsuranceContract[]",
          "name": "",
          "type": "address[]"
        }
      ],
      "stateMutability": "view",
      "type": "function",
      "constant": true
    }
  ],
  "bytecode": "0x60806040523480156200001157600080fd5b5060405162000a0338038062000a03833981810160405281019062000037919062000179565b80600090805190602001906200004f92919062000057565b5050620002ef565b82805462000065906200025b565b90600052602060002090601f016020900481019282620000895760008555620000d5565b82601f10620000a457805160ff1916838001178555620000d5565b82800160010185558215620000d5579182015b82811115620000d4578251825591602001919060010190620000b7565b5b509050620000e49190620000e8565b5090565b5b8082111562000103576000816000905550600101620000e9565b5090565b60006200011e6200011884620001f2565b620001be565b9050828152602081018484840111156200013757600080fd5b6200014484828562000225565b509392505050565b600082601f8301126200015e57600080fd5b81516200017084826020860162000107565b91505092915050565b6000602082840312156200018c57600080fd5b600082015167ffffffffffffffff811115620001a757600080fd5b620001b5848285016200014c565b91505092915050565b6000604051905081810181811067ffffffffffffffff82111715620001e857620001e7620002c0565b5b8060405250919050565b600067ffffffffffffffff82111562000210576200020f620002c0565b5b601f19601f8301169050602081019050919050565b60005b838110156200024557808201518184015260208101905062000228565b8381111562000255576000848401525b50505050565b600060028204905060018216806200027457607f821691505b602082108114156200028b576200028a62000291565b5b50919050565b7f4e487b7100000000000000000000000000000000000000000000000000000000600052602260045260246000fd5b7f4e487b7100000000000000000000000000000000000000000000000000000000600052604160045260246000fd5b61070480620002ff6000396000f3fe608060405234801561001057600080fd5b50600436106100575760003560e01c80630af742381461005c5780633b04f6f114610078578063986ae8a014610096578063b8c88587146100b4578063d3e89483146100d2575b600080fd5b610076600480360381019061007191906103b6565b610102565b005b61008061019f565b60405161008d91906104d5565b60405180910390f35b61009e61022d565b6040516100ab9190610512565b60405180910390f35b6100bc6102bf565b6040516100c99190610512565b60405180910390f35b6100ec60048036038101906100e791906103df565b61034d565b6040516100f991906104f7565b60405180910390f35b6001819080600181540180825580915050600190039060005260206000200160009091909190916101000a81548173ffffffffffffffffffffffffffffffffffffffff021916908373ffffffffffffffffffffffffffffffffffffffff1602179055507f72f45523b96a40eea34ac39eef282968b094f2631a9964fdcc1b65eb0c6dfe368160405161019491906104f7565b60405180910390a150565b6060600180548060200260200160405190810160405280929190818152602001828054801561022357602002820191906000526020600020905b8160009054906101000a900473ffffffffffffffffffffffffffffffffffffffff1673ffffffffffffffffffffffffffffffffffffffff16815260200190600101908083116101d9575b5050505050905090565b60606000805461023c9061062e565b80601f01602080910402602001604051908101604052809291908181526020018280546102689061062e565b80156102b55780601f1061028a576101008083540402835291602001916102b5565b820191906000526020600020905b81548152906001019060200180831161029857829003601f168201915b5050505050905090565b600080546102cc9061062e565b80601f01602080910402602001604051908101604052809291908181526020018280546102f89061062e565b80156103455780601f1061031a57610100808354040283529160200191610345565b820191906000526020600020905b81548152906001019060200180831161032857829003601f168201915b505050505081565b6001818154811061035d57600080fd5b906000526020600020016000915054906101000a900473ffffffffffffffffffffffffffffffffffffffff1681565b60008135905061039b816106a0565b92915050565b6000813590506103b0816106b7565b92915050565b6000602082840312156103c857600080fd5b60006103d68482850161038c565b91505092915050565b6000602082840312156103f157600080fd5b60006103ff848285016103a1565b91505092915050565b6000610414838361047e565b60208301905092915050565b600061042b82610544565b6104358185610567565b935061044083610534565b8060005b838110156104715781516104588882610408565b97506104638361055a565b925050600181019050610444565b5085935050505092915050565b610487816105d7565b82525050565b610496816105d7565b82525050565b60006104a78261054f565b6104b18185610578565b93506104c18185602086016105fb565b6104ca8161068f565b840191505092915050565b600060208201905081810360008301526104ef8184610420565b905092915050565b600060208201905061050c600083018461048d565b92915050565b6000602082019050818103600083015261052c818461049c565b905092915050565b6000819050602082019050919050565b600081519050919050565b600081519050919050565b6000602082019050919050565b600082825260208201905092915050565b600082825260208201905092915050565b6000610594826105ad565b9050919050565b60006105a682610589565b9050919050565b600073ffffffffffffffffffffffffffffffffffffffff82169050919050565b6000819050919050565b60006105e2826105e9565b9050919050565b60006105f4826105ad565b9050919050565b60005b838110156106195780820151818401526020810190506105fe565b83811115610628576000848401525b50505050565b6000600282049050600182168061064657607f821691505b6020821081141561065a57610659610660565b5b50919050565b7f4e487b7100000000000000000000000000000000000000000000000000000000600052602260045260246000fd5b6000601f19601f8301169050919050565b6106a98161059b565b81146106b457600080fd5b50565b6106c0816105cd565b81146106cb57600080fd5b5056fea264697066735822122071534d8292d1a3d0931be463c0dfdb4c9cc779d0ed0562c29f18a354883463b564736f6c63430008000033",
  "immutableReferences": {},
  "source": "// SPDX-License-Identifier: MIT\r\npragma solidity ^0.8.0;\r\n\r\nimport \"./InsuranceContract.sol\";\r\n\r\ncontract PolicyHolder {\r\n    string public holderId;\r\n    InsuranceContract[] public policies;\r\n\r\n    // Event for policy application\r\n    event PolicyApplied(InsuranceContract insuranceContract);\r\n\r\n    constructor(string memory _holderId) {\r\n        holderId = _holderId;\r\n    }\r\n\r\n    function applyForInsurance(InsuranceContract insuranceContract) public {\r\n        policies.push(insuranceContract);\r\n        emit PolicyApplied(insuranceContract);  // Emit event when a policy is applied for\r\n    }\r\n\r\n    function getHolderId() public view returns (string memory) {\r\n        return holderId;\r\n    }\r\n\r\n    function getPolicies() public view returns (InsuranceContract[] memory) {\r\n        return policies;\r\n    }\r\n}\r\n",
  "sourcePath": "D:\\sem-7\\Blockchain\\Mini_Project\\insurance_app\\contracts\\PolicyHolder.sol",
  "compiler": {
    "name": "solc",
    "version": "0.8.0+commit.c7dfd78e.Emscripten.clang"
  },
  "schemaVersion": "3.4.16",
  "updatedAt": "2024-10-12T17:06:54.868Z",
  "networkType": "ethereum",
  "devdoc": {
    "kind": "dev",
    "methods": {},
    "version": 1
  },
  "userdoc": {
    "kind": "user",
    "methods": {},
    "version": 1
  }
}