{
  "contractName": "SmartContract",
  "abi": [
    {
      "inputs": [
        {
          "internalType": "address",
          "name": "_owner",
          "type": "address"
        }
      ],
      "stateMutability": "nonpayable",
      "type": "constructor"
    },
    {
      "anonymous": false,
      "inputs": [
        {
          "indexed": true,
          "internalType": "address",
          "name": "conditionAddress",
          "type": "address"
        }
      ],
      "name": "ClaimFiled",
      "type": "event"
    },
    {
      "anonymous": false,
      "inputs": [
        {
          "indexed": true,
          "internalType": "address",
          "name": "recipient",
          "type": "address"
        },
        {
          "indexed": false,
          "internalType": "uint256",
          "name": "amount",
          "type": "uint256"
        }
      ],
      "name": "PaymentExecuted",
      "type": "event"
    },
    {
      "anonymous": false,
      "inputs": [
        {
          "indexed": true,
          "internalType": "address",
          "name": "insuranceContractAddress",
          "type": "address"
        },
        {
          "indexed": false,
          "internalType": "bool",
          "name": "isValid",
          "type": "bool"
        }
      ],
      "name": "PolicyValidated",
      "type": "event"
    },
    {
      "inputs": [],
      "name": "isActive",
      "outputs": [
        {
          "internalType": "bool",
          "name": "",
          "type": "bool"
        }
      ],
      "stateMutability": "view",
      "type": "function",
      "constant": true
    },
    {
      "inputs": [],
      "name": "owner",
      "outputs": [
        {
          "internalType": "address",
          "name": "",
          "type": "address"
        }
      ],
      "stateMutability": "view",
      "type": "function",
      "constant": true
    },
    {
      "stateMutability": "payable",
      "type": "receive",
      "payable": true
    },
    {
      "inputs": [
        {
          "internalType": "address payable",
          "name": "recipient",
          "type": "address"
        },
        {
          "internalType": "uint256",
          "name": "amount",
          "type": "uint256"
        }
      ],
      "name": "executePayment",
      "outputs": [],
      "stateMutability": "payable",
      "type": "function",
      "payable": true
    },
    {
      "inputs": [
        {
          "internalType": "contract InsuranceContract",
          "name": "insuranceContract",
          "type": "address"
        }
      ],
      "name": "validatePolicy",
      "outputs": [
        {
          "internalType": "bool",
          "name": "",
          "type": "bool"
        }
      ],
      "stateMutability": "nonpayable",
      "type": "function"
    },
    {
      "inputs": [
        {
          "internalType": "contract Condition",
          "name": "condition",
          "type": "address"
        }
      ],
      "name": "fileClaim",
      "outputs": [],
      "stateMutability": "nonpayable",
      "type": "function"
    }
  ],
  "bytecode": "0x608060405234801561001057600080fd5b5060405161099c38038061099c833981810160405281019061003291906100a8565b806000806101000a81548173ffffffffffffffffffffffffffffffffffffffff021916908373ffffffffffffffffffffffffffffffffffffffff1602179055506001600060146101000a81548160ff0219169083151502179055505061011a565b6000815190506100a281610103565b92915050565b6000602082840312156100ba57600080fd5b60006100c884828501610093565b91505092915050565b60006100dc826100e3565b9050919050565b600073ffffffffffffffffffffffffffffffffffffffff82169050919050565b61010c816100d1565b811461011757600080fd5b50565b610873806101296000396000f3fe60806040526004361061004e5760003560e01c806322f3e2d41461005a578063328f82a41461008557806335ae54e8146100c25780638da5cb5b146100eb578063ef0bba2c1461011657610055565b3661005557005b600080fd5b34801561006657600080fd5b5061006f610132565b60405161007c91906106a5565b60405180910390f35b34801561009157600080fd5b506100ac60048036038101906100a7919061054e565b610145565b6040516100b991906106a5565b60405180910390f35b3480156100ce57600080fd5b506100e960048036038101906100e49190610525565b61021f565b005b3480156100f757600080fd5b506101006102c5565b60405161010d919061068a565b60405180910390f35b610130600480360381019061012b91906104c0565b6102e9565b005b600060149054906101000a900460ff1681565b6000808273ffffffffffffffffffffffffffffffffffffffff1663bb5d40eb6040518163ffffffff1660e01b815260040160206040518083038186803b15801561018e57600080fd5b505afa1580156101a2573d6000803e3d6000fd5b505050506040513d601f19601f820116820180604052508101906101c691906104fc565b90508273ffffffffffffffffffffffffffffffffffffffff167f993b43ad7a9134e8a7289c13b2e09a60b5c1a038b5490cfe85557eb07c31f4a68260405161020e91906106a5565b60405180910390a280915050919050565b8073ffffffffffffffffffffffffffffffffffffffff16631afbd1286040518163ffffffff1660e01b8152600401600060405180830381600087803b15801561026757600080fd5b505af115801561027b573d6000803e3d6000fd5b505050508073ffffffffffffffffffffffffffffffffffffffff167f90d856e2f2aba7f985707bc1ef74924c6f5cd06f19125ad78d4263a5230c764060405160405180910390a250565b60008054906101000a900473ffffffffffffffffffffffffffffffffffffffff1681565b600060149054906101000a900460ff16610338576040517f08c379a000000000000000000000000000000000000000000000000000000000815260040161032f90610700565b60405180910390fd5b6000811161037b576040517f08c379a0000000000000000000000000000000000000000000000000000000008152600401610372906106c0565b60405180910390fd5b804710156103be576040517f08c379a00000000000000000000000000000000000000000000000000000000081526004016103b5906106e0565b60405180910390fd5b8173ffffffffffffffffffffffffffffffffffffffff166108fc829081150290604051600060405180830381858888f19350505050158015610404573d6000803e3d6000fd5b508173ffffffffffffffffffffffffffffffffffffffff167fc7b16f0c91d6e099a9fb831632a80052954f1f27b4c358262703709988e698568260405161044b9190610720565b60405180910390a25050565b600081359050610466816107ca565b92915050565b60008151905061047b816107e1565b92915050565b600081359050610490816107f8565b92915050565b6000813590506104a58161080f565b92915050565b6000813590506104ba81610826565b92915050565b600080604083850312156104d357600080fd5b60006104e185828601610457565b92505060206104f2858286016104ab565b9150509250929050565b60006020828403121561050e57600080fd5b600061051c8482850161046c565b91505092915050565b60006020828403121561053757600080fd5b600061054584828501610481565b91505092915050565b60006020828403121561056057600080fd5b600061056e84828501610496565b91505092915050565b6105808161074c565b82525050565b61058f81610770565b82525050565b60006105a260218361073b565b91507f416d6f756e74206d7573742062652067726561746572207468616e207a65726f60008301527f2e000000000000000000000000000000000000000000000000000000000000006020830152604082019050919050565b6000610608601e8361073b565b91507f496e73756666696369656e7420636f6e74726163742062616c616e63652e00006000830152602082019050919050565b600061064860178361073b565b91507f436f6e7472616374206973206e6f74206163746976652e0000000000000000006000830152602082019050919050565b610684816107c0565b82525050565b600060208201905061069f6000830184610577565b92915050565b60006020820190506106ba6000830184610586565b92915050565b600060208201905081810360008301526106d981610595565b9050919050565b600060208201905081810360008301526106f9816105fb565b9050919050565b600060208201905081810360008301526107198161063b565b9050919050565b6000602082019050610735600083018461067b565b92915050565b600082825260208201905092915050565b6000610757826107a0565b9050919050565b6000610769826107a0565b9050919050565b60008115159050919050565b60006107878261074c565b9050919050565b60006107998261074c565b9050919050565b600073ffffffffffffffffffffffffffffffffffffffff82169050919050565b6000819050919050565b6107d38161075e565b81146107de57600080fd5b50565b6107ea81610770565b81146107f557600080fd5b50565b6108018161077c565b811461080c57600080fd5b50565b6108188161078e565b811461082357600080fd5b50565b61082f816107c0565b811461083a57600080fd5b5056fea264697066735822122039bbc201144f52be119c48b68147a8661ca92cc277edca982a8aa99221e7580a64736f6c63430008000033",
  "immutableReferences": {},
  "source": "// SPDX-License-Identifier: MIT\r\npragma solidity ^0.8.0;\r\n\r\nimport \"./InsuranceContract.sol\";\r\nimport \"./Condition.sol\";\r\n\r\ncontract SmartContract {\r\n    address public owner;\r\n    bool public isActive;\r\n\r\n    // Events to log significant actions\r\n    event PaymentExecuted(address indexed recipient, uint amount);\r\n    event ClaimFiled(address indexed conditionAddress);\r\n    event PolicyValidated(address indexed insuranceContractAddress, bool isValid);\r\n\r\n    constructor(address _owner) {\r\n        owner = _owner;\r\n        isActive = true;  // The smart contract is active upon deployment\r\n    }\r\n\r\n    function executePayment(address payable recipient, uint amount) public payable {\r\n        require(isActive, \"Contract is not active.\");\r\n        require(amount > 0, \"Amount must be greater than zero.\");\r\n        require(address(this).balance >= amount, \"Insufficient contract balance.\");\r\n\r\n        recipient.transfer(amount);\r\n        emit PaymentExecuted(recipient, amount);\r\n    }\r\n\r\n    function validatePolicy(InsuranceContract insuranceContract) public returns (bool) {\r\n        bool valid = insuranceContract.isValid();\r\n        emit PolicyValidated(address(insuranceContract), valid);\r\n        return valid;\r\n    }\r\n\r\n    function fileClaim(Condition condition) public {\r\n        condition.submitClaim();\r\n        emit ClaimFiled(address(condition));\r\n    }\r\n\r\n    receive() external payable {}\r\n}\r\n",
  "sourcePath": "D:\\sem-7\\Blockchain\\Mini_Project\\insurance_app\\contracts\\SmartContract.sol",
  "compiler": {
    "name": "solc",
    "version": "0.8.0+commit.c7dfd78e.Emscripten.clang"
  },
  "schemaVersion": "3.4.16",
  "updatedAt": "2024-10-12T17:06:54.887Z",
  "networkType": "ethereum",
  "devdoc": {
    "kind": "dev",
    "methods": {},
    "version": 1
  },
  "userdoc": {
    "kind": "user",
    "methods": {},
    "version": 1
  }
}