{
  "contractName": "Term",
  "abi": [
    {
      "inputs": [
        {
          "internalType": "string",
          "name": "_termID",
          "type": "string"
        },
        {
          "internalType": "string",
          "name": "_termType",
          "type": "string"
        }
      ],
      "stateMutability": "nonpayable",
      "type": "constructor"
    },
    {
      "anonymous": false,
      "inputs": [
        {
          "indexed": false,
          "internalType": "contract Condition",
          "name": "condition",
          "type": "address"
        }
      ],
      "name": "ConditionAdded",
      "type": "event"
    },
    {
      "inputs": [
        {
          "internalType": "uint256",
          "name": "",
          "type": "uint256"
        }
      ],
      "name": "conditions",
      "outputs": [
        {
          "internalType": "contract Condition",
          "name": "",
          "type": "address"
        }
      ],
      "stateMutability": "view",
      "type": "function",
      "constant": true
    },
    {
      "inputs": [],
      "name": "termID",
      "outputs": [
        {
          "internalType": "string",
          "name": "",
          "type": "string"
        }
      ],
      "stateMutability": "view",
      "type": "function",
      "constant": true
    },
    {
      "inputs": [],
      "name": "termType",
      "outputs": [
        {
          "internalType": "string",
          "name": "",
          "type": "string"
        }
      ],
      "stateMutability": "view",
      "type": "function",
      "constant": true
    },
    {
      "inputs": [
        {
          "internalType": "contract Condition",
          "name": "condition",
          "type": "address"
        }
      ],
      "name": "addCondition",
      "outputs": [],
      "stateMutability": "nonpayable",
      "type": "function"
    },
    {
      "inputs": [],
      "name": "getConditions",
      "outputs": [
        {
          "internalType": "contract Condition[]",
          "name": "",
          "type": "address[]"
        }
      ],
      "stateMutability": "view",
      "type": "function",
      "constant": true
    },
    {
      "inputs": [],
      "name": "evaluate",
      "outputs": [
        {
          "internalType": "bool",
          "name": "",
          "type": "bool"
        }
      ],
      "stateMutability": "view",
      "type": "function",
      "constant": true
    },
    {
      "inputs": [],
      "name": "getTermId",
      "outputs": [
        {
          "internalType": "string",
          "name": "",
          "type": "string"
        }
      ],
      "stateMutability": "view",
      "type": "function",
      "constant": true
    },
    {
      "inputs": [],
      "name": "getTermType",
      "outputs": [
        {
          "internalType": "string",
          "name": "",
          "type": "string"
        }
      ],
      "stateMutability": "view",
      "type": "function",
      "constant": true
    }
  ],
  "bytecode": "0x60806040523480156200001157600080fd5b5060405162000e1a38038062000e1a833981810160405281019062000037919062000193565b81600090805190602001906200004f92919062000071565b5080600190805190602001906200006892919062000071565b50505062000337565b8280546200007f90620002a3565b90600052602060002090601f016020900481019282620000a35760008555620000ef565b82601f10620000be57805160ff1916838001178555620000ef565b82800160010185558215620000ef579182015b82811115620000ee578251825591602001919060010190620000d1565b5b509050620000fe919062000102565b5090565b5b808211156200011d57600081600090555060010162000103565b5090565b60006200013862000132846200023a565b62000206565b9050828152602081018484840111156200015157600080fd5b6200015e8482856200026d565b509392505050565b600082601f8301126200017857600080fd5b81516200018a84826020860162000121565b91505092915050565b60008060408385031215620001a757600080fd5b600083015167ffffffffffffffff811115620001c257600080fd5b620001d08582860162000166565b925050602083015167ffffffffffffffff811115620001ee57600080fd5b620001fc8582860162000166565b9150509250929050565b6000604051905081810181811067ffffffffffffffff8211171562000230576200022f62000308565b5b8060405250919050565b600067ffffffffffffffff82111562000258576200025762000308565b5b601f19601f8301169050602081019050919050565b60005b838110156200028d57808201518184015260208101905062000270565b838111156200029d576000848401525b50505050565b60006002820490506001821680620002bc57607f821691505b60208210811415620002d357620002d2620002d9565b5b50919050565b7f4e487b7100000000000000000000000000000000000000000000000000000000600052602260045260246000fd5b7f4e487b7100000000000000000000000000000000000000000000000000000000600052604160045260246000fd5b610ad380620003476000396000f3fe608060405234801561001057600080fd5b50600436106100885760003560e01c80637c1236271161005b5780637c123627146101155780637daa9efc14610133578063b027985214610151578063fad1bd501461016f57610088565b806322d349321461008d57806326c50007146100a957806329047970146100d957806374f84ddf146100f7575b600080fd5b6100a760048036038101906100a291906106c0565b61018d565b005b6100c360048036038101906100be91906106e9565b61022a565b6040516100d0919061082b565b60405180910390f35b6100e1610269565b6040516100ee9190610846565b60405180910390f35b6100ff6102f7565b60405161010c9190610846565b60405180910390f35b61011d610385565b60405161012a91906107ee565b60405180910390f35b61013b610413565b6040516101489190610810565b60405180910390f35b610159610534565b6040516101669190610846565b60405180910390f35b6101776105c6565b6040516101849190610846565b60405180910390f35b6002819080600181540180825580915050600190039060005260206000200160009091909190916101000a81548173ffffffffffffffffffffffffffffffffffffffff021916908373ffffffffffffffffffffffffffffffffffffffff1602179055507f4087009b8562f3389c15059816ad586974a353c62c84b4eab133a8cefdcf10348160405161021f919061082b565b60405180910390a150565b6002818154811061023a57600080fd5b906000526020600020016000915054906101000a900473ffffffffffffffffffffffffffffffffffffffff1681565b600080546102769061096e565b80601f01602080910402602001604051908101604052809291908181526020018280546102a29061096e565b80156102ef5780601f106102c4576101008083540402835291602001916102ef565b820191906000526020600020905b8154815290600101906020018083116102d257829003601f168201915b505050505081565b600180546103049061096e565b80601f01602080910402602001604051908101604052809291908181526020018280546103309061096e565b801561037d5780601f106103525761010080835404028352916020019161037d565b820191906000526020600020905b81548152906001019060200180831161036057829003601f168201915b505050505081565b6060600280548060200260200160405190810160405280929190818152602001828054801561040957602002820191906000526020600020905b8160009054906101000a900473ffffffffffffffffffffffffffffffffffffffff1673ffffffffffffffffffffffffffffffffffffffff16815260200190600101908083116103bf575b5050505050905090565b600080600090505b60028054905081101561052b5760028181548110610462577f4e487b7100000000000000000000000000000000000000000000000000000000600052603260045260246000fd5b9060005260206000200160009054906101000a900473ffffffffffffffffffffffffffffffffffffffff1673ffffffffffffffffffffffffffffffffffffffff1663200d2ed26040518163ffffffff1660e01b815260040160206040518083038186803b1580156104d257600080fd5b505afa1580156104e6573d6000803e3d6000fd5b505050506040513d601f19601f8201168201806040525081019061050a9190610697565b610518576000915050610531565b8080610523906109a0565b91505061041b565b50600190505b90565b6060600080546105439061096e565b80601f016020809104026020016040519081016040528092919081815260200182805461056f9061096e565b80156105bc5780601f10610591576101008083540402835291602001916105bc565b820191906000526020600020905b81548152906001019060200180831161059f57829003601f168201915b5050505050905090565b6060600180546105d59061096e565b80601f01602080910402602001604051908101604052809291908181526020018280546106019061096e565b801561064e5780601f106106235761010080835404028352916020019161064e565b820191906000526020600020905b81548152906001019060200180831161063157829003601f168201915b5050505050905090565b60008151905061066781610a58565b92915050565b60008135905061067c81610a6f565b92915050565b60008135905061069181610a86565b92915050565b6000602082840312156106a957600080fd5b60006106b784828501610658565b91505092915050565b6000602082840312156106d257600080fd5b60006106e08482850161066d565b91505092915050565b6000602082840312156106fb57600080fd5b600061070984828501610682565b91505092915050565b600061071e8383610797565b60208301905092915050565b600061073582610878565b61073f818561089b565b935061074a83610868565b8060005b8381101561077b5781516107628882610712565b975061076d8361088e565b92505060018101905061074e565b5085935050505092915050565b610791816108cf565b82525050565b6107a081610917565b82525050565b6107af81610917565b82525050565b60006107c082610883565b6107ca81856108ac565b93506107da81856020860161093b565b6107e381610a47565b840191505092915050565b60006020820190508181036000830152610808818461072a565b905092915050565b60006020820190506108256000830184610788565b92915050565b600060208201905061084060008301846107a6565b92915050565b6000602082019050818103600083015261086081846107b5565b905092915050565b6000819050602082019050919050565b600081519050919050565b600081519050919050565b6000602082019050919050565b600082825260208201905092915050565b600082825260208201905092915050565b60006108c8826108ed565b9050919050565b60008115159050919050565b60006108e6826108bd565b9050919050565b600073ffffffffffffffffffffffffffffffffffffffff82169050919050565b6000819050919050565b600061092282610929565b9050919050565b6000610934826108ed565b9050919050565b60005b8381101561095957808201518184015260208101905061093e565b83811115610968576000848401525b50505050565b6000600282049050600182168061098657607f821691505b6020821081141561099a57610999610a18565b5b50919050565b60006109ab8261090d565b91507fffffffffffffffffffffffffffffffffffffffffffffffffffffffffffffffff8214156109de576109dd6109e9565b5b600182019050919050565b7f4e487b7100000000000000000000000000000000000000000000000000000000600052601160045260246000fd5b7f4e487b7100000000000000000000000000000000000000000000000000000000600052602260045260246000fd5b6000601f19601f8301169050919050565b610a61816108cf565b8114610a6c57600080fd5b50565b610a78816108db565b8114610a8357600080fd5b50565b610a8f8161090d565b8114610a9a57600080fd5b5056fea26469706673582212202128fc1ba374a6613840a982d6907d4a806f8a0963193426d4b2f777a66f0c1b64736f6c63430008000033",
  "immutableReferences": {},
  "source": "// SPDX-License-Identifier: MIT\r\npragma solidity ^0.8.0;\r\n\r\nimport \"./Condition.sol\";\r\n\r\ncontract Term {\r\n    string public termID;\r\n    string public termType;\r\n    Condition[] public conditions;\r\n\r\n    // Event for adding a condition\r\n    event ConditionAdded(Condition condition);\r\n\r\n    constructor(string memory _termID, string memory _termType) {\r\n        termID = _termID;\r\n        termType = _termType;\r\n    }\r\n\r\n    function addCondition(Condition condition) public {\r\n        conditions.push(condition);\r\n        emit ConditionAdded(condition);  // Emit event when a condition is added\r\n    }\r\n\r\n    function getConditions() public view returns (Condition[] memory) {\r\n        return conditions;\r\n    }\r\n\r\n    function evaluate() public view returns (bool) {\r\n        for (uint i = 0; i < conditions.length; i++) {\r\n            if (!conditions[i].status()) {\r\n                return false;\r\n            }\r\n        }\r\n        return true;\r\n    }\r\n\r\n    function getTermId() public view returns (string memory) {\r\n        return termID;\r\n    }\r\n\r\n    function getTermType() public view returns (string memory) {\r\n        return termType;\r\n    }\r\n}\r\n",
  "sourcePath": "D:\\sem-7\\Blockchain\\Mini_Project\\insurance_app\\contracts\\Term.sol",
  "compiler": {
    "name": "solc",
    "version": "0.8.0+commit.c7dfd78e.Emscripten.clang"
  },
  "schemaVersion": "3.4.16",
  "updatedAt": "2024-10-12T17:06:54.879Z",
  "networkType": "ethereum",
  "devdoc": {
    "kind": "dev",
    "methods": {},
    "version": 1
  },
  "userdoc": {
    "kind": "user",
    "methods": {},
    "version": 1
  }
}